:100000000C9405050C942D050C942D050C942D05D0
:100010000C942D050C942D050C942D050C942D0598
:100020000C942D050C942D050C9410070C9482074C
:100030000C942D050C942D050C942D050C942D0578
:100040000C942D050C942D050C942D050C942D0568
:100050000C942D050C942D050C942D050C94510B2E
:100060000C942D050C942D050C942D050C942D0548
:100070000C942D050C942D050C942D050C942D0538
:100080000C942D050C942D050C942D050C942D0528
:100090000C942D050C942D050C942D050C942D0518
:1000A0000C942D050C942D050C942D0505A84CCD14
:1000B000B2D44EB93836A9020C50B9918688083CA2
:1000C000A6AAAA2ABE000000803FF0F89C8E878373
:1000D000878E9CF8F00000FEFF0303030303070E66
:1000E000FCF80000FEFF0303030303070EFCF80007
:1000F00000FFFF00000000000000FFFF0000FEFF07
:100100008383838383C7EE7C380000F8FC0E0703EB
:100110000303070EFCF800003F7FE0C08080C0E0D2
:100120007F3FFFFF01010101010101FFFF0000FF0F
:10013000FF0C0C0C0C1C3E77E3C100007FFFC0C01D
:10014000C0C0C0E0703F1F00001F3F70E0C0C0C0D3
:10015000E0703F1F00007FFFC1C1C1C1C1E3773E16
:100160001C00001F3F70E0C0C0C0E0703F1F0000D7
:1001700000000001FFFF01000000D5F08D14A1C8B0
:1001800081CFD9F1AF200010100303000000000060
:10019000000000000000000303C0C00000000000D9
:1001A00000000000000000C0C003030000000000C9
:1001B00000000000000000FFFFC0C00000000000C1
:1001C00000000000000000FFFF030300000000002B
:1001D000000000000000000303C0C0C0C0C0C0C0D9
:1001E000C0C0C0C0C0C0C0C0C00303000000000049
:1001F00000000000000000FFFFC0C0C0C0C0C0C0C1
:10020000C0C0C0C0C0C0C0FFFFFFFF0000000000B2
:10021000000000000000000303FFFF0000000000DA
:1002200000000000000000C0C0FFFF000000000050
:1002300000000000000000FFFFFFFF0000000000C2
:1002400000000000000000FFFFFFFF0000000000B2
:10025000000000000000000303FFFFC0C0C0C0C0DA
:10026000C0C0C0C0C0C0C0C0C0FFFF0000000000D0
:1002700000000000000000FFFFFFFFC0C0C0C0C0C2
:10028000C0C0C0C0C0C0C0FFFF030303030303031B
:10029000030303030303030303C0C00000000000C3
:1002A00000000000000000C0C003030303030303B9
:1002B00003030303030303FFFFC0C00000000000AB
:1002C00000000000000000FFFF030303030303031B
:1002D000030303030303030303C0C0C0C0C0C0C0C3
:1002E000C0C0C0C0C0C0C0C0C00303030303030339
:1002F00003030303030303FFFFC0C0C0C0C0C0C0AB
:10030000C0C0C0C0C0C0C0FFFFFFFF0303030303A2
:10031000030303030303030303FFFF0000000000C4
:1003200000000000000000C0C0FFFF030303030340
:1003300003030303030303FFFFFFFF0000000000AC
:1003400000000000000000FFFFFFFF0303030303A2
:10035000030303030303030303FFFFC0C0C0C0C0C4
:10036000C0C0C0C0C0C0C0C0C0FFFF0303030303C0
:1003700003030303030303FFFFFFFFC0C0C0C0C0AC
:10038000C0C0C0C0C0C0C0FFFF000000F0F8F8F857
:10039000F8F8F8F8F8700000000000000F1F1F1FA9
:1003A0001F1F1F1E1E0E000000000000F0F8F8F8CE
:1003B000F8F8F8F8F8F00000000000000F1F1F1F09
:1003C000030F1F1F1F0F00000000000070F8F8F857
:1003D000F8F8F8F8F8F00000000000000E1E1E1FEC
:1003E0001F1F1F1F1F0F000000000000F0F8F8F88B
:1003F000F0C0F8F8F8F00000000000000F1F1F1F09
:100400001F1F1F1F1F0F0000001010000000F0181A
:10041000080868680888D8700000000000000F18FD
:100420001010101011121A0E000000000000F01839
:1004300008080808888818F00000000000000F185D
:10044000101C020C1911180F00000000000070D8D9
:1004500088086868080818F00000000000000E1AFC
:10046000121110101010180F000000000000F018FA
:1004700088983040380818F00000000000000F187D
:10048000111110101010180F000000080B000202CC
:10049000020100090400000102020000052400100E
:1004A00001052401010104240206052406000107B8
:1004B00005810310004009040100020A0000000742
:1004C0000502024000000705830240000004030902
:1004D0000412010002EF02014041233680000101B5
:1004E00002030141726475696E6F204C4C430041F8
:1004F000726475696E6F204C656F6E6172646F0017
:10050000010204081020408000000000003E5B4F04
:100510005B3E3E6B4F6B3E1C3E7C3E1C183C7E3C63
:10052000181C577D571C1C5E7F5E1C00183C180071
:10053000FFE7C3E7FF0018241800FFE7DBE7FF3001
:10054000483A060E2629792926407F050507407F6F
:1005500005253F5A3CE73C5A7F3E1C1C08081C1CE2
:100560003E7F14227F22145F5F005F5F06097F01D8
:100570007F006689956A606060606094A2FFA294C3
:1005800008047E040810207E201008082A1C080891
:100590001C2A08081E101010100C1E0C1E0C3038DF
:1005A0003E3830060E3E0E06000000000000005FE0
:1005B00000000007000700147F147F14242A7F2AFC
:1005C00012231308646236495620500008070300BE
:1005D000001C2241000041221C002A1C7F1C2A080A
:1005E000083E08080080703000080808080800006D
:1005F00060600020100804023E5149453E00427FE1
:10060000400072494949462141494D331814127F2F
:100610001027454545393C4A4949314121110907CF
:100620003649494936464949291E00001400000050
:100630004034000000081422411414141414004122
:1006400022140802015909063E415D594E7C1211DF
:10065000127C7F494949363E414141227F41414117
:100660003E7F494949417F090909013E4141517392
:100670007F0808087F00417F41002040413F017F03
:10068000081422417F404040407F021C027F7F04CB
:1006900008107F3E4141413E7F090909063E415114
:1006A000215E7F09192946264949493203017F0104
:1006B000033F4040403F1F2040201F3F4038403F05
:1006C000631408146303047804036159494D43001B
:1006D0007F4141410204081020004141417F040252
:1006E00001020440404040400003070800205454E9
:1006F00078407F28444438384444442838444428C7
:100700007F385454541800087E090218A4A49C7819
:100710007F0804047800447D40002040403D007F75
:100720001028440000417F40007C047804787C0855
:100730000404783844444438FC1824241818242429
:1007400018FC7C08040408485454542404043F440E
:10075000243C4040207C1C2040201C3C4030403C3D
:1007600044281028444C9090907C4464544C44009D
:100770000836410000007700000041360800020101
:100780000204023C2623263C1EA1A161123A4040ED
:10079000207A38545455592155557941215454786B
:1007A00041215554784020545579400C1E52721204
:1007B000395555555939545454593955545458008C
:1007C00000457C410002457D420001457C40F02906
:1007D0002429F0F0282528F07C5455450020545455
:1007E0007C547C0A097F4932494949323248484899
:1007F00032324A4848303A4141217A3A42402078E0
:10080000009DA0A07D39444444393D4040403D3CDA
:1008100024FF2424487E4943662B2FFC2F2BFF09FD
:1008200029F620C0887E09032054547941000044F1
:100830007D413048484A32384040227A007A0A0ADC
:10084000727D0D19317D2629292F2826292929264F
:1008500030484D4020380808080808080808382F94
:1008600010C8ACBA2F102834FA00007B000008141E
:100870002A142222142A14089500220095AA005551
:1008800000AAAA55AA55AA000000FF00101010FFE8
:1008900000141414FF001010FF00FF1010F010F0EF
:1008A000141414FC001414F700FF0000FF00FF14E0
:1008B00014F404FC141417101F10101F101F14142C
:1008C000141F00101010F0000000001F1010101076
:1008D0001F10101010F010000000FF10101010106A
:1008E00010101010FF10000000FF140000FF00FFA8
:1008F00000001F10170000FC04F414141710171444
:1009000014F404F40000FF00F71414141414141465
:10091000F700F7141414171410101F101F141414D8
:10092000F4141010F010F000001F101F0000001F42
:1009300014000000FC140000F010F01010FF10FF75
:10094000141414FF141010101F00000000F010FF0A
:10095000FFFFFFFFF0F0F0F0F0FFFFFF00000000EE
:1009600000FFFF0F0F0F0F0F38444438447C2A2A32
:100970003E147E02020606027E027E026355494153
:10098000633844443C04407E201E2006027E02025E
:1009900099A5E7A5991C2A492A1C4C7201724C3072
:1009A0004A4D4D303048784830BC625A463D3E4949
:1009B0004949007E0101017E2A2A2A2A2A44445FED
:1009C000444440514A444040444A51400000FF01E1
:1009D00003E080FF000008086B6B083612362436EF
:1009E000060F090F06000018180000001010003054
:1009F00040FF0101001F01011E00191D1712003CDC
:100A00003C3C3C00000000002C1411241FBECFEF22
:100A1000DAE0DEBFCDBF11E0A0E0B1E0EEE6F0E34A
:100A200002C005900D92A03AB107D9F726E0A0EADE
:100A3000B1E001C01D92A33AB207E1F715E0C5E0AD
:100A4000D5E004C02197FE010E942A18C430D107C6
:100A5000C9F70E94F20D0C9435180C940000FC01AB
:100A600080912202811103C08FEF9FEF08959FB7FD
:100A7000F89482E08093E9002091F20030E01216B1
:100A8000130614F421E030E02115310559F02898BF
:100A900084E6809321028091F10080838091F200AE
:100AA000882319F09FBFC90108958BE68093E80061
:100AB000F9CF2FB7F89483E08093E9009091E80094
:100AC000892F807295FF04C09091F20080E4891B09
:100AD0002FBF08958091460681110DC082E080935A
:100AE000420684E080934306109245061092440625
:100AF00081E08093460682E496E00895CF93DF93E9
:100B00001F92CDB7DEB76983DC01ED91FC910280C5
:100B1000F381E02D41E050E0BE016F5F7F4F09950A
:100B20000F90DF91CF91089583E08093E900809149
:100B3000F200882319F08AE38093E80008950E9468
:100B4000590590E00895CF93DF931F92CDB7DEB79C
:100B5000FC018485958597FD05C02FEF3FEF358714
:100B600024870BC0CE0101960E942F05019719F42E
:100B7000898190E002C08FEF9FEF0F90DF91CF91BE
:100B800008950F931F93CF93DF931F92CDB7DEB7D6
:100B90008C01FC018485958597FF0EC0CE010196DE
:100BA0000E942F05019719F4298130E002C02FEF30
:100BB0003FEFF80135872487F801848595850F90EC
:100BC000DF91CF911F910F910895FC018485958548
:100BD00097FD0BC09FB7F89482E08093E900809165
:100BE000F2009FBF90E0019608959FB7F89482E0CD
:100BF0008093E9008091F2009FBF90E008958F926A
:100C00009F92AF92BF92CF92DF92EF92FF920F939B
:100C10001F93CF93DF935C016B017A0180910D01EB
:100C2000882309F45BC080912202882309F456C00E
:100C30008091200280FF05C08091E0008260809357
:100C4000E000E70110E00AEF83E0882E9AE3992E96
:100C50002097D9F10E94590581110AC0015009F469
:100C60003DC061E070E080E090E00E94170BF0CFA3
:100C7000282F30E0C217D3070CF48C2F4FB7F8940D
:100C80008092E9009091E80095FF1DC0282F30E088
:100C9000C21BD30BF601982F915020F081918093C5
:100CA000F100FACFC20ED31E112319F09092E80082
:100CB00009C08091E80085FD06C09092E80011E02F
:100CC000209709F010E04FBFC3CF1111C3CF5D983B
:100CD00084E6809341061E141F0444F081E090E0F6
:100CE000F5019383828380E090E001C0C701DF912A
:100CF000CF911F910F91FF90EF90DF90CF90BF9019
:100D0000AF909F908F900895DF92EF92FF920F9394
:100D10001F93CF93DF93D82E8A017B01E40EF51E3B
:100D2000EB01CE15DF0571F0D7FE03C0FE01849103
:100D300001C088810E94B70D21968111F2CF8FEFFB
:100D40009FEF01C0C801DF91CF911F910F91FF90DC
:100D5000EF90DF9008950F931F93CF93DF931F922F
:100D6000CDB7DEB782E0898342E450E06BE874E0FF
:100D700080E80E9484060E946A05DC0112960D91AB
:100D80001C9113970115110569F0D801ED91FC91A3
:100D90000280F381E02DBE016F5F7F4FC80109958E
:100DA00097FF07C089810F90DF91CF911F910F911D
:100DB0000895F80100851185E5CF009769F0FC01E1
:100DC00001900020E9F73197AF01481B590BBC0196
:100DD00083E296E00C94B20980E090E008950C94D0
:100DE000DD0680E0E3E2F2E081118FEF00248193E1
:100DF0008193819381930394D1F708958091230285
:100E00008EBDE4E2F2E081910DB407FEFDCF8EBD10
:100E100086E0E332F807B9F70DB407FEFDCF089579
:100E20001F920F920FB60F9211248F939F93809170
:100E3000E1009091E100937F9093E10083FF0FC068
:100E40001092E90091E09093EB001092EC0092E395
:100E50009093ED001092220298E09093F00082FFB0
:100E600020C093E09093E9009091F200992319F04B
:100E70009AE39093E80090914106992339F090917C
:100E80004106915090934106992389F19091210256
:100E9000992339F090912102915090932102992346
:100EA00041F184FF10C08091E2008E7E81608093CA
:100EB000E2008091E1008F7E8093E100809120022A
:100EC0008E7E806111C080FF16C08091E2008E7E10
:100ED00080618093E2008091E1008E7E8093E1004A
:100EE000809120028E7E81608093200204C05D9AF2
:100EF000CDCF289AD6CF9F918F910F900FBE0F9094
:100F00001F9018951F920F920FB60F921124CF9237
:100F1000DF92EF92FF920F931F932F933F934F9384
:100F20005F936F937F938F939F93AF93BF93EF9351
:100F3000FF93CF93DF93CDB7DEB76C97DEBFCDBF06
:100F40001092E9008091E80083FFEDC168E0CE01D6
:100F500045960E94E50D82EF8093E8008D8987FF1A
:100F600005C09091E80090FFFCCF03C09EEF9093E6
:100F7000E800982F907609F0C6C09E892F89188DB9
:100F800091110CC0803829F480911F028093F100E8
:100F900002C01092F1001092F10048C1422F50E0BF
:100FA000512B913051F4811141C14130510509F06B
:100FB0003DC180911F028D7F0BC0933061F4811180
:100FC00035C14130510509F031C180911F02826065
:100FD00080931F022BC1953041F48091E80080FF7F
:100FE000FCCF20682093E30021C1963009F05FC058
:100FF000EB8CFC8C1092E90010921D0210921C02E6
:10100000123091F510921B0210921A020E94AB0648
:1010100099E0BE016F5F7F4FDB01E92F1D92EA95DA
:10102000E9F799831A8391E09E8390EA98879AEF73
:10103000998720911C0230911D02275F3F4F3C830E
:101040002B838D831092E90010921D0210921C02D6
:10105000F0921B02E0921A0249E050E080E00E9408
:1010600084060E94AB06E2C0F0921B02E0921A02D4
:101070000E946A05DC011296ED90FC901397E11432
:10108000F10409F4C0C0D701ED91FC910480F58111
:10109000E02DBE016B5E7F4FC7010995009719F0E7
:1010A0000CF0C4C0C7C0F701E084F184E8CF9730EA
:1010B00009F4C0C0983021F481E08093F100B6C0FB
:1010C000993009F0B3C0837009F0B4C0E7E3F1E0F0
:1010D00081E021E036E39081992361F08093E9007B
:1010E0002093EB0091919093EC003093ED008F5F93
:1010F000873089F78EE78093EA001092EA008F89A3
:101100008093220293C08B8D9C8D1092E9001092E7
:101110001D0210921C0290931B0280931A02898D6B
:10112000811156C08E899D89913A59F4813209F016
:1011300081C047E050E066E071E080E00E948406F4
:1011400075C0913209F076C0833289F4888D90E0C1
:10115000982F88272F89822BA0E0B0E0809302018E
:1011600090930301A0930401B09305015FC0803206
:1011700069F48091E80082FFFCCF67E086E091E0AF
:101180000E94E50D8BEF8093E80006C0823209F0E3
:101190004DC08F8980930D0180911E02882319F024
:1011A000EEEFFAE002C0E0E0F8E0809106019091F5
:1011B0000701A0910801B0910901803B9440A1056D
:1011C000B10509F07BC080910D0180FF93C076C00E
:1011D0000E946A05DC0112960D911C91139701156E
:1011E000110541F1D801ED91FC910190F081E02DC4
:1011F000BE016B5E7F4FC8010995811117C0F801D0
:1012000000851185ECCF113009F44EC0133091F4F4
:101210008F89882309F445C0823081F440E860E179
:101220008FEE94E00E94EF13882321F08EEF8093DD
:10123000E80079C081E28093EB0075C0813029F429
:1012400040E86BE083EE94E0EDCF833099F70E94A5
:101250006A05DC011296ED90FC9013978E010F5FEA
:101260001F4F6801E114F10479F0D701ED91FC9171
:101270000680F781E02DB801C7010995080F111DFF
:10128000F701E084F184EECFD8011C92F6010190C1
:101290000020E9F73197BF016C197D0940E0C601D4
:1012A000C1CF6DEC74E002C061ED74E061157105B1
:1012B00009F2FB01449150E080E840CF0FB6F8946A
:1012C000A895809160008861809360001092600012
:1012D0000FBEA895EE3F2AE0F20739F08091FE0A92
:1012E0009091FF0A91838083A1CF1092FF0A109200
:1012F000FE0A9CCFEE3F8AE0F80731F080819181B1
:101300009093FF0A8093FE0A87E797E79183808393
:101310009BE088E10FB6F894A895809360000FBE1B
:101320009093600083CF6C960FB6F894DEBF0FBE2B
:10133000CDBFDF91CF91FF91EF91BF91AF919F9181
:101340008F917F916F915F914F913F912F911F915D
:101350000F91FF90EF90DF90CF900F900FBE0F9006
:101360001F901895CF92DF92EF92FF920F931F93E9
:10137000CF93DF936C017A018B01C0E0D0E0CE15F2
:10138000DF0589F0D8016D918D01D601ED91FC91B9
:101390000190F081E02DC6010995892B11F47E01A1
:1013A00002C02196ECCFC701DF91CF911F910F9121
:1013B000FF90EF90DF90CF9008952F923F924F9241
:1013C0005F926F927F928F929F92AF92BF92CF92D5
:1013D000DF92EF92FF920F931F93CF93DF93CDB7DE
:1013E000DEB727970FB6F894DEBF0FBECDBF9B8345
:1013F0008A836A30A1F4DC015C962C915C97589644
:101400008D919C915997B8E02B9F800D911D1124CF
:10141000EA81FB81918F808F178A168AC1C06D3057
:1014200009F4BEC0AA81BB815C964C915C975B9627
:101430006C905B976E825A967C905A977F825896F2
:10144000CD90DC90599756968D919C915797803806
:101450009105C4F0AA81BB815C962C915C97422FC8
:1014600050E056968D919C915797B6E02B9F800D3A
:10147000911D1124EA81FB81978B868B258D21118B
:101480007AC08EC0F0E4CF16D10424F79C0155E059
:10149000459F200D311D112412161306DCF6242E53
:1014A000312C9601A8E04A9F200D311D11241216FF
:1014B000130684F6B5E06B9FB0011124FB01E85FD1
:1014C000FA4F2F0150E0F201B490553009F4B12CDD
:1014D0007601B8E09B2EB0FC02C08E8001C08F80E8
:1014E00081100BC06E807F80671007C0B6949A94FD
:1014F000E20CF31C9110EFCF33C09C012983622FC3
:10150000681B641798F7B701E62FEE19E41728F562
:1015100020383105F8F460347105E0F48B01E0E027
:10152000F5E0A0E16A2E7980609ED001A0781124B8
:10153000A70D0770E00FF11DA490BD83AC83AD5DD6
:10154000BD4F882019F0EC91AE2A03C0A094EC9115
:10155000AE22AC926F5F7F4FD7CF2F5F3F4FCECF82
:101560005F5F820D931D92012F5F3F4F290156301F
:1015700009F0A9CF6FCF6AEF64039001659F300D2A
:10158000112420583F4F2817390754F48A819B8132
:10159000DC01ED91FC910190F081E02D6AE009956C
:1015A00081E090E027960FB6F894DEBF0FBECDBF66
:1015B000DF91CF911F910F91FF90EF90DF90CF902F
:1015C000BF90AF909F908F907F906F905F904F9063
:1015D0003F902F9008950895089580E090E0089539
:1015E0000E9430183FB7F89480919F069091A00612
:1015F000A091A106B091A20626B5A89B05C02F3FD9
:1016000019F00196A11DB11D3FBFBA2FA92F982F28
:101610008827820F911DA11DB11DBC01CD0142E0A3
:10162000660F771F881F991F4A95D1F708958F92EB
:101630009F92AF92BF92CF92DF92EF92FF926B0197
:101640007C010E94F20A4B015C01C114D104E10447
:10165000F104F1F00E94F20ADC01CB01881999092A
:10166000AA09BB09883E9340A105B10570F321E0AA
:10167000C21AD108E108F10888EE880E83E0981EAE
:10168000A11CB11CC114D104E104F10419F7DDCF90
:10169000FF90EF90DF90CF90BF90AF909F908F9092
:1016A00008951F920F920FB60F9211242F933F931C
:1016B0008F939F93AF93BF938091A0019091A101CD
:1016C000A091A201B091A30130919E0623E0230FC7
:1016D0002D3720F40196A11DB11D05C026E8230F6A
:1016E0000296A11DB11D20939E068093A0019093A8
:1016F000A101A093A201B093A30180919F069091B4
:10170000A006A091A106B091A2060196A11DB11D4F
:1017100080939F069093A006A093A106B093A20683
:10172000BF91AF919F918F913F912F910F900FBEDD
:101730000F901F9018954F925F926F927F928F92A9
:101740009F92AF92BF92CF92DF92EF92FF920F9350
:101750001F93CF93DF9300D000D0CDB7DEB7490100
:101760002C2DA02EB12CDC01AA0DBB1D1A161B06B8
:101770000CF0B3C1803891050CF0AFC1FB01EE0D48
:10178000F11D1E161F060CF0A8C1603471050CF087
:10179000A4C14115510509F4A0C1FB0177FF04C0A4
:1017A000EE27FF27E61BF70B3E2F3770732EFB014A
:1017B00077FD379633E0F595E7953A95E1F73E2FBB
:1017C00077FF07C0772029F03FEF3E0F68E06719E9
:1017D000762E97FF05C0EE27FF27E81BF90B02C006
:1017E000E0E0F0E0A038B10524F060E8F62EF81A49
:1017F00001C0F02EFE1A632F032E000C770B3F3F23
:101800001CF4A62FA09501C0A0E011E0BE2DB7707A
:1018100009F410E0E694E694E694E10E6E0D711D75
:10182000693071051CF068E0E62EE31AEA1A3A0FF7
:1018300060E83603800D911D11248E0F9F1FA09F1D
:10184000E00DF11D11244E0F5F1F61E070E0072CC9
:1018500002C0660F771F0A94E2F7233009F4FCC038
:1018600098F4213009F4AEC0223009F036C12FEFD0
:10187000269F8001279F100D1124009510951C8331
:101880000B835C80E30E27C02A3F29F02B3F09F031
:1018900024C1E30E83C0E30E4EC0FA01EC0DFD1D22
:1018A000E491E69F4001E79F900C11249A8289827F
:1018B00037FD04C02C912023822A8C92711014C011
:1018C000EFEFCE1ADE0A1196CF1438F33F5F4A0DC0
:1018D0005B1D80589F4F3E1509F4FFC0DC01AD5DD4
:1018E000BD4FC12CD12CF0CF373054F7FD01E0585B
:1018F000FF4F208125219A8029292083E1CFFA01F9
:10190000E00FF11FE491E69F6001E79FD00C1124E6
:10191000DA82C98237FD03C02C91C22ACC927110A1
:1019200013C00F5F1F4F11960F1548F33F5F4A0D0D
:101930005B1D80589F4F3E1509F4CFC0DC01AD5DA3
:10194000BD4F00E010E0F0CF37305CF7FD01E0580C
:10195000FF4FD0802A812D292083E3CFFA01EC0D9F
:10196000FD1DE491E69FD001E79FB00D1124BA83DD
:10197000A98337FD05C0A095F8012081A223A0838B
:10198000711015C0FFEFCF1ADF0A0F5F1F4FCF1482
:1019900028F33F5F4A0D5B1D80589F4F3E1509F4A9
:1019A0009CC08C010D5D1D4FC12CD12CF0CF373068
:1019B0004CF7F801E058FF4F2A812095A0812A2397
:1019C0002083E0CFD401AE0FBF1FE30E3E1509F414
:1019D00084C0FC01ED5DFD4F4F01C12CD12CCF1413
:1019E00098F5FD01EC0DFD1DE491E69F8001E79F58
:1019F000100D1124009510951C830B83FA01EC0D3A
:101A0000FD1DE491E69F2001E79F500C11245A82AE
:101A1000498237FD05C0F40120810223402A40821B
:101A2000772059F037304CF4F401E058FF4F108123
:101A30002C8121231A81212B2083FFEFCF1ADF0A6B
:101A40002FEF821A920ACBCF3F5F4A0D5B1DAA0D82
:101A5000BB1D80589F4FBACFCF2CD12CE40FF51F60
:101A6000DC01AD5DBD4FAC014D555D4F00E810E0B0
:101A70000C191D09AC18BD08AA0CBB1C6F2C2E2D0F
:101A8000CF93DF93EA018590C590772059F0869E29
:101A90004001C69E600137302CF49881D0949D217E
:101AA0009929999333233AF09C91C0949C219829C9
:101AB0009D930C945C0D1196FA9429F7EA9451F0D9
:101AC000F62C33951124EA0DF11DA00FB11DC00FA6
:101AD000D11DD9CFDF91CF9111240F900F900F908E
:101AE0000F90DF91CF911F910F91FF90EF90DF90BA
:101AF000CF90BF90AF909F908F907F906F905F90AE
:101B00004F9008952D9A0895BC0180E090E00C94C8
:101B1000170B8FB12CB193B130E020953095207424
:101B20003327A90123E0559547952A95E1F7292FF9
:101B300030E02095309520713327359527953595E0
:101B40002795242B8095807F822B089583B7817FF2
:101B500083BF83B7816083BF889583B78E7F83BF40
:101B600008958EBD00000DB407FEFDCF089540918D
:101B70001C0250911D0220911A0230911B02421743
:101B80005307B4F49091E8009570E1F39091E80068
:101B900092FD19C08093F10080911C0290911D026A
:101BA00001968F739927892B19F48EEF8093E800A3
:101BB00080911C0290911D02019690931D028093CA
:101BC0001C0281E0089580E00895615030F020917A
:101BD000F100FC0120830196F8CF289884E68093D9
:101BE00021020895CF93DF93CDB7DEB7AB970FB641
:101BF000F894DEBF0FBECDBF789484B5826084BDFB
:101C000084B5816084BD85B5826085BD85B5816000
:101C100085BD80916E00816080936E00109281007E
:101C20008091810082608093810080918100816039
:101C300080938100809180008160809380008091FA
:101C400091008260809391008091910081608093E7
:101C50009100809190008160809390008091C100FC
:101C600084608093C1008091C10082608093C10034
:101C70008091C10081608093C1008091C300816028
:101C80008093C3008091C00082608093C0008091E7
:101C9000C20081608093C20080917A00846080934A
:101CA0007A0080917A00826080937A0080917A0035
:101CB000816080937A0080917A00806880937A00B6
:101CC0001092220210921F02109220028091D700DF
:101CD00081608093D70080EA8093D80089B58061C5
:101CE00089BD89B5826089BD09B400FEFDCF61E080
:101CF00070E080E090E00E94170B8091D8008F7C0C
:101D000080618093D8008091E000807F8093E00024
:101D10008091E1008E7E8093E1008DE08093E2006F
:101D2000559A209AEEEFFFE7859194918B3F9C4D59
:101D300019F481E080931E0281EC80937C0085B1D0
:101D4000806F85B9249884B1866E84B95E9A5F9855
:101D50008AB1806D8AB9769A6E9881B3806F81BBA3
:101D6000899880B38D7080BB80E58CBD81E08DBD8E
:101D700085E090E00E94840D5F9A85E090E00E94EB
:101D8000840D5E985C980AE711E08DE0F82EF00E65
:101D9000F80184910E94B10D0F5F1F4FF012F8CF30
:101DA0005C9A81E88093640081E08093650000E0A4
:101DB00014E080E00E94B10D01501109D1F70E949A
:101DC000890D87FF1FC05C9885EA0E94B10D5C9A5F
:101DD0002E982F982D9880916400806280936400E3
:101DE0000E94A60DFDCF2D980E94890D847884381D
:101DF00071F00E94890D8471843131F188EC90E09A
:101E00000E94840D0E94890D82FDEDCF3AC00E9490
:101E1000820D88EC90E00E94840D2F9882E090E083
:101E20000E945D158F3F29F06FEF82E090E00E94E5
:101E3000651584EF91E00E94840D2F9A0E94890D10
:101E400084788438D9F3D5CF0E94820D88EC90E055
:101E50000E94840D2E9882E090E00E945D158823F8
:101E600029F060E082E090E00E94651584EF91E047
:101E70000E94840D2E9A0E94890D84718431D9F3B9
:101E8000BDCF0E94820D82E090E00E945D15882304
:101E900031F03E9A3F9A81E08093A40104C01092F1
:101EA000A4013E983F982E980EEE1FEFB8E0AB2E9F
:101EB000B12C0E94890D86FF04C02E9A2F9A2D9A6C
:101EC0008CC00C3FFFEF1F0719F42E9A2F9805C006
:101ED0000831110511F42F9A2D980E94F106003F48
:101EE0002FEF120784F40E94FE068BE190E00E941F
:101EF000840D003F4FEF140709F059C08AEF90E0BE
:101F00000E94840D54C0980117FF04C02227332774
:101F1000201B310B27703327C80117FD0796A3E05C
:101F200095958795AA95E1F717FF05C00197B5012B
:101F3000621B730B9B017C01F694FE2CEE24F7943C
:101F4000E79440E050E03501621A730AD701A058C7
:101F5000BF4F4D018F3FBFEF9B0744F40196485A96
:101F60005F4F7401403B510589F7BDCFD701A9549C
:101F7000BD4F60E070E08F3FEFEF9E0709F4F3C2C2
:101F8000FB01E40FF51FE653FF4FE4916D01C81804
:101F9000D908CE0CDF1CF0E01F01022E01C0220C7C
:101FA0000A94EAF7F601508025282082DCC20F5FF0
:101FB0001F4F0931110509F07CCF8CEB92E00E9494
:101FC000840D0E94820DE0912706F0912806019071
:101FD000F081E02D87E296E0099582E390E00E948F
:101FE000840D0E94890D8111F8CF81E280932E0625
:101FF000809164008E7F8093640080917A00806479
:1020000080937A0080917A0086FDFCCF0091780061
:10201000109179000E94F20A20E030E09801112727
:102020000027600F711F821F931F611571058105C5
:10203000910511F00E945415809164008160809395
:1020400064000E94FE060E94F10610923C06109267
:102050003B0610923A06109239061092180210921E
:1020600017021092140210921302812C912C540129
:1020700083942FB7F8948091A0019091A101A09131
:10208000A201B091A3012FBF4091330650913406B5
:10209000609135067091360620913706222341F073
:1020A00020912F06821B809338061092370653C268
:1020B00084179507A607B70738F4481B423008F481
:1020C0004AC20E94A60D47C221E0209337068093A2
:1020D0002F0690933006A0933106B09332062091DC
:1020E0002E06820F911DA11DB11D80933306909382
:1020F0003406A0933506B093360680912A06909157
:102100002B06019690932B0680932A060E94890D38
:1021100087FF08C00E94890D83FF04C00E94890DBB
:1021200082FD3CC280912C0680932D060E94890D71
:1021300080932C060E94F10610923C0610923B06FA
:1021400010923A0610923906809100019091010197
:102150008130910571F583E691E00E94EF0685E6F6
:1021600091E00E94EF0683E691E00E94EF0683E68D
:1021700091E00E94EF0683E691E00E94EF0683E67D
:1021800091E00E94EF068AE791E00E94EF068091BD
:10219000A5019091A60101969093A6018093A501B7
:1021A00020912D0623FDD5C120912C0623FFD1C1FE
:1021B000FCC1029709F07DC180911902882379F151
:1021C0002091170230911802809115029091160209
:1021D000280F391F309318022093170240911302E1
:1021E000509114028091110290911202840F951F58
:1021F000909314028093130240910F0250911002A9
:102200002417350709F0A4C020910D0230910E0269
:102210008217930709F09CC01092190299C00E947E
:10222000890D87FF03C003E010E002C00FEF1FEF2E
:102230000E94890D84FF02C001E010E00E94890D18
:1022400085FF02C002E010E00E94890D86FF02C0F7
:1022500000E010E0E0901302F0901402C09017022A
:10226000D0901802F601D7FC3F96B4E0F595E795BB
:10227000BA95E1F7C701F7FC0F96A4E0959587950D
:10228000AA95E1F74AE0489F9001499F300D11243B
:10229000E20FF31FE755FE4F808190E0002E02C051
:1022A000959587950A94E2F7817099270F3F2FEF54
:1022B000120709F44DC0892B09F04AC0B801012E5C
:1022C000000C880B990B0E9413162BED3FE049E49C
:1022D00050E40E94B61620E030E040E05FE30E9448
:1022E000B6162B013C010E94D6150E94DB156AA38D
:1022F0007BA38CA39DA37093160260931502C30168
:10230000B2010E9423170E94DB15709312026093A2
:1023100011024AA05BA054E0440C551C5A95E1F709
:102320004C0C5D1C5092100240920F02E4E0660FCC
:10233000771FEA95E1F76E0D7F1D70930E02609393
:102340000D0281E0809319021093A8010093A70168
:10235000209117023091180280911302909114027B
:1023600048E150E03A01681A790A49EA242E41E02E
:10237000342E48EB50E0BA01681B790B7FA36EA3A3
:1023800088E390E0DC01A21BB30BB9A7A8A788EDF6
:1023900090E0FC01E21BF30BFBA7EAA748A459A4B9
:1023A0003BA22AA2AAA1BBA16D91BBA3AAA3E7E865
:1023B000F1E00491E8E8F1E0E490662301F1402FB8
:1023C00050E08E2D869586958695282F30E081E009
:1023D00090E07E2D777011F480E090E0820F931FE3
:1023E000489F9001499F300D589F300D1124629FE6
:1023F000A001639F500D112447575E4F02C049E86A
:1024000051E082E0C82E20E030E0B301C2010E941A
:102410009B0BF0E14F0E511CEAA4FBA44E145F0489
:1024200009F0C0CF00E1600E711C1AE0210E311CD2
:102430004EA15FA16416750609F0B0CFA091A70167
:10244000E9E0F4E00491EAE0F4E0E490AA2321F169
:10245000402F50E08E2D869586958695682F70E0EA
:1024600021E030E09E2D977011F420E030E0CB01A8
:10247000820F931F489F9001499F300D589F300D48
:102480001124A29FA001A39F500D11249A01275748
:102490003C4F455F5B4F04C029E833E04BE054E01C
:1024A000CC24C39468E170E088E390E00E949B0B29
:1024B00050C08FE891E00E94EF06C0900001D090DC
:1024C00001010D2C000CEE08FF08F7FE28C0E0917A
:1024D0002306F09124060190F081E02D6DE283E265
:1024E00096E0099522273327A9012C193D094E09A9
:1024F0005F0919A28E010F5D1F4FCA01B9012AE0C1
:1025000030E040E050E00E94A515605DD8016E9378
:102510008D01211531054105510579F717C0A70136
:10252000960119A28E010F5D1F4FCA01B9012AE061
:1025300030E040E050E00E94A515605DF801629334
:102540008F01211531054105510579F7C8010E9418
:10255000DD060E94FE0680E090E0892B09F489CD1B
:102560000E94000086CD2115310581F0FB01E40FAA
:10257000F51FE653FF4FE491F0E0062C02C0F595FD
:10258000E7950A94E2F7DC90ED29EC936F5F7F4FBB
:1025900011966835710509F0EECCE0CC81E090E051
:1025A0009093010180930001BDCD0E94F614E9EAE9
:1025B000F1E08FE09F01265F3F4F8193E217F30721
:1025C000E1F702E0ED30F007A9F7E12CF12C00E093
:1025D00010E034E0232E312C4AE0D42E5AE0C52EF0
:1025E00088E0E6E1F1E0DE01119601900D928A9516
:1025F000E1F72E0129E0420E511CAE014F5F5F4F03
:102600003A010E94F114B1010E940218FC01EE0F80
:10261000FF1F61E070E06C0F7D1FE60FF71F8081E8
:102620009181D3012D913C9131832083F3018193DA
:1026300091933F01E415F50521F7DB016D907D9045
:10264000B301660F771FFB01E25DFE4F20813181F0
:10265000200F311FFB01EA5DFE4F408151812A307E
:10266000310508F041C04E0D5F1D4A305105E0F5BF
:10267000D49EF001D59EF00D1124E20FF31FE75513
:10268000FE4F80818F3081F5AAE0AE9DC001AF9DE5
:10269000900D1124080F191FD801A755BE4F8501B1
:1026A000740104C0EE0CFF1C001F111F6A94D2F7C6
:1026B0002701380140948C9148224C92DB01A25EA4
:1026C000BE4F850174010C9004C0EE0CFF1C001F6E
:1026D000111F0A94D2F7D801C701809590818923F0
:1026E00080837A0189017CCFA415B50509F0A6CFB6
:1026F00069EA71E0E12CF12C00E010E0FB01E00F51
:10270000F11F80818F3009F053C0FE013196619036
:1027100071909301220F331FD901A25DBE4F8D919D
:102720009C91800F911FD901AA5DBE4F4D915C9184
:102730008A309105C8F54E0D5F1D4A305105A0F550
:10274000D49ED001D59EB00D1124A80FB91FA75556
:10275000BE4F8C918F3041F1CE9CF001CF9CF00D9B
:102760001124E00FF11FE755FE4FB501A40104C08D
:10277000440F551F661F771F6A94D2F740954F701C
:102780004083F901E25EFE4FB501A401008004C060
:10279000440F551F661F771F0A94D2F740959C91EE
:1027A000842F89238C931CCFE415F50509F0AFCF56
:1027B0000F5F1F4F0A30110509F0A0CF0FEFE01A8D
:1027C000F00A665F7F4F1AE0E116F10409F094CF3A
:1027D00082E090E09093010180930001BACECF9205
:1027E000DF92EF92FF920F931F93CF93DF931F928D
:1027F000CDB7DEB7182F062FE42E862F880F8E5FF9
:1028000099830E94B70D83E00E94B70DF12EC12E6F
:102810009981D92E8C2D8F19801798F4F601E7FE37
:1028200002C0849101C080810E94B70D182F80E002
:102830000E94B70D8123FFEFCF1ADF0A8111EACF83
:1028400001C081E00F90DF91CF911F910F91FF9018
:10285000EF90DF90CF900895EEE4F6E013821282BD
:1028600088EE93E0A0E0B0E084839583A683B783ED
:1028700081E491E0918380838FEF9FEF9587848738
:10288000E3E2F6E0138212821186128620E12387AA
:1028900090878783108A118A128A138A148A83E5A3
:1028A00091E09183808381E691E095838483178A08
:1028B000168A118E108E81E0828F138E848F158E72
:1028C00008950F931F93CF93DF938C0181E090E0E5
:1028D0000E945D1580FF31C08AE090E00E945D1586
:1028E0009FEF980F9E3F48F522E330E0D8015796BE
:1028F0003C932E93569728E330E059963C932E93C1
:102900005897CBE0D0E0D801ED91FC910190F08197
:10291000E02D682FC8010995CE010E945D15219612
:10292000C131D10581F70E94FE0688EE93E0DF9168
:10293000CF911F910F910C94840DDF91CF911F9136
:102940000F91089504970C9461148F929F92AF9207
:10295000BF92CF92DF92EF92FF92CF93DF93EC0181
:10296000688179818A819B81611571058105910555
:1029700021F464E279ED8BE597E02DE133EF41E05E
:1029800050E00E94731549015A019B01AC01A7EA6E
:10299000B1E40E9492156B017C01ACEEB4EFA5018D
:1029A00094010E94A015DC01CB018C0D9D1DAE1D74
:1029B000BF1DB7FF03C00197A109B0488883998361
:1029C000AA83BB839F77DF91CF91FF90EF90DF9039
:1029D000CF90BF90AF909F908F9008950E94A514C4
:1029E00008958EE091E00E94A5140895A0E0B0E063
:1029F00080930E0190930F01A0931001B0931101E9
:102A000008958F929F92AF92BF92CF92DF92EF92F2
:102A1000FF92CF93DF93EC01688179818A819B815A
:102A2000611571058105910521F464E279ED8BE56D
:102A300097E02DE133EF41E050E00E94731549012A
:102A40005A019B01AC01A7EAB1E40E9492156B0107
:102A50007C01ACEEB4EFA50194010E94A015DC014D
:102A6000CB018C0D9D1DAE1DBF1DB7FF03C001978F
:102A7000A109B04888839983AA83BB83BC01CD0197
:102A80009F77DF91CF91FF90EF90DF90CF90BF9035
:102A9000AF909F908F9008950E940115089582E154
:102AA00091E00E9401150895609312017093130143
:102AB00080931401909315010895F999FECF92BD6A
:102AC00081BDF89A992780B50895262FF999FECFF0
:102AD0001FBA92BD81BD20BD0FB6F894FA9AF99A3B
:102AE0000FBE01960895052E97FB1EF400940E94D8
:102AF0008A1557FD07D00E94A51507FC03D04EF498
:102B00000C948A1550954095309521953F4F4F4F25
:102B10005F4F089590958095709561957F4F8F4F89
:102B20009F4F08950E94C715A59F900DB49F900DCB
:102B3000A49F800D911D11240895B7FF0C94921548
:102B40000E949215821B930B0895A1E21A2EAA1BD4
:102B5000BB1BFD010DC0AA1FBB1FEE1FFF1FA2174D
:102B6000B307E407F50720F0A21BB30BE40BF50B4A
:102B7000661F771F881F991F1A9469F760957095D3
:102B8000809590959B01AC01BD01CF010895A29F56
:102B9000B001B39FC001A39F700D811D1124911D31
:102BA000B29F700D811D1124911D08950E94501631
:102BB000E3950C9479160E94E2156894B1110C9477
:102BC000B01608950E94951688F09F5798F0B92F77
:102BD0009927B751B0F0E1F0660F771F881F991F52
:102BE0001AF0BA95C9F714C0B13091F00E94AF162F
:102BF000B1E008950C94AF16672F782F8827B85F3F
:102C000039F0B93FCCF3869577956795B395D9F7A9
:102C10003EF490958095709561957F4F8F4F9F4FB3
:102C20000895E89409C097FB3EF4909580957095BF
:102C300061957F4F8F4F9F4F9923A9F0F92F96E908
:102C4000BB279395F695879577956795B795F1117D
:102C5000F8CFFAF4BB0F11F460FF1BC06F5F7F4F1A
:102C60008F4F9F4F16C0882311F096E911C077232C
:102C700021F09EE8872F762F05C0662371F096E835
:102C8000862F70E060E02AF09A95660F771F881F04
:102C9000DAF7880F9695879597F908950C94A517FC
:102CA0000E949516D8F3E894E0E0BB279F57F0F018
:102CB0002AED3FE049EC06C0EE0FBB0F661F771F01
:102CC000881F28F0B23A62077307840728F0B25AC7
:102CD000620B730B840BE3959A9572F7803830F48E
:102CE0009A95BB0F661F771F881FD2F790480C94E8
:102CF0009917EF93E0FF07C0A2EA2AED3FE049EC05
:102D00005FEB0E943C170E94CA170F90039401FCCE
:102D10009058ECEAF0E00C94A81757FD9058440F37
:102D2000551F59F05F3F71F04795880F97FB991F2A
:102D300061F09F3F79F087950895121613061406E7
:102D4000551FF2CF4695F1DF08C016161706180674
:102D5000991FF1CF86957105610508940895E8944F
:102D6000BB2766277727CB0197F908950E94C916DC
:102D70000C94CA170E94BC1738F00E94C31720F0A9
:102D8000952311F00C9491170C94A51711240C9411
:102D9000B0160E948D1670F3959FC1F3950F50E009
:102DA000551F629FF001729FBB27F00DB11D639FFD
:102DB000AA27F00DB11DAA1F649F6627B00DA11DA3
:102DC000661F829F2227B00DA11D621F739FB00D49
:102DD000A11D621F839FA00D611D221F749F3327B9
:102DE000A00D611D231F849F600D211D822F762F52
:102DF0006A2F11249F5750409AF0F1F088234AF02F
:102E0000EE0FFF1FBB1F661F771F881F915050409A
:102E1000A9F79E3F510580F00C9491170C94B016C1
:102E20005F3FE4F3983ED4F3869577956795B79521
:102E3000F795E7959F5FC1F7FE2B880F911D96953B
:102E4000879597F908959F930E9450160F9007FC5D
:102E5000EE5F0C9479160E94BC1738F00E94C317DD
:102E600020F039F49F3F19F426F40C94A5170EF4C2
:102E7000E095E7FB0C949117E92F0E948D1658F30B
:102E8000BA17620773078407950720F079F4A6F54F
:102E90000C94AF160EF4E0950B2EBA2FA02D0B015B
:102EA000B90190010C01CA01A0011124FF27591B8F
:102EB00099F0593F50F4503E68F11A16F040A22F95
:102EC000232F342F4427585FF3CF46953795279506
:102ED000A795F0405395C9F77EF41F16BA0B620B05
:102EE000730B840BBAF09150A1F0FF0FBB1F661F4C
:102EF000771F881FC2F70EC0BA0F621F731F841F8F
:102F000048F4879577956795B795F7959E3F08F0B4
:102F1000B0CF9395880F08F09927EE0F9795879576
:102F2000089597F99F6780E870E060E008959F3FFB
:102F300031F0915020F4879577956795B795880F74
:102F4000911D9695879597F908959FEF80EC0895C8
:102F50009F938F937F936F93FF93EF939B01AC01AC
:102F60000E94B616EF91FF910E94DB172F913F91BF
:102F70004F915F910C94B61600240A94161617060A
:102F800018060906089500240A941216130614065A
:102F900005060895092E0394000C11F4882352F0BD
:102FA000BB0F40F4BF2B11F460FF04C06F5F7F4F75
:102FB0008F4F9F4F0895DF93CF931F930F93FF92EF
:102FC000EF92DF927B018C01689406C0DA2EEF014C
:102FD0000E94C916FE01E894A5912591359145916D
:102FE0005591A6F3EF010E943C17FE019701A8013D
:102FF000DA9469F7DF90EF90FF900F911F91CF91D6
:10300000DF91089597FB072E16F4009407D077FD03
:1030100009D00E94161807FC05D03EF490958195C2
:103020009F4F0895709561957F4F0895AA1BBB1B14
:1030300051E107C0AA1FBB1FA617B70710F0A61BB8
:10304000B70B881F991F5A95A9F780959095BC01D9
:10305000CD010895EE0FFF1F0590F491E02D099426
:0E30600081E090E0F8940C943518F894FFCFBE
:10306E000100FFFFFFFF00E1000000000000010073
:10307E000000010000000300010000000200020039
:10308E00030000000100000001000000FFFF01002E
:10309E000000FFFF000000C1808100000000000062
:1030AE00007E05FF059F059405E505A305C10500F6
:1030BE00000000DD09B209ED0AEC0A6114FCFF0004
:1030CE0000A2140A0020204D617A65204578706CAC
:1030DE006F7265722076312E30002020707265730B
:1030EE0073205B415D20746F2073746172740055A0
:1030FE006E6B6E6F776E2073746174653A2000008C
:00000001FF
